:020000040800F2
:100000000000022001E600084D0E00084F0E000817
:10001000510E0008530E0008550E000800000000A5
:10002000000000000000000000000000570E000863
:10003000590E0008000000005B0E00085D0E00086D
:1000400051E6000851E6000851E6000851E60008B4
:1000500051E6000851E6000851E6000851E60008A4
:1000600051E6000851E6000851E6000851E6000894
:1000700051E6000851E6000851E6000851E6000884
:1000800051E6000851E6000851E6000851E6000874
:1000900051E6000851E6000851E6000851E6000864
:1000A00051E6000851E6000851E6000851E6000854
:1000B0006B0E000851E6000851E6000851E6000802
:1000C00051E6000851E6000851E6000851E6000834
:1000D00051E6000851E6000851E6000851E6000824
:1000E00051E6000851E6000851E6000851E6000814
:1000F00051E6000851E6000851E6000851E6000804
:1001000051E6000851E6000851E6000851E60008F3
:1001100051E6000851E6000851E6000851E60008E3
:1001200051E6000851E6000851E6000851E60008D3
:1001300051E6000851E6000851E6000851E60008C3
:1001400051E6000851E6000851E600088D0E00084F
:1001500051E6000851E6000851E6000851E60008A3
:1001600051E6000851E6000851E6000851E6000893
:1001700051E6000851E6000851E6000800000000C2
:0801800051E6000851E60008F9
:1001880010B5054C237833B9044B13B10448AFF3C9
:1001980000800123237010BD4404002000000000EB
:1001A800C0E9000808B5034B1BB103490348AFF386
:1001B800008008BD0000000048040020C0E90008D5
:1001C800154B002B08BF134B9D46A3F5803A002121
:1001D8008B460F461348144A121A0EF08FFA0F4B2B
:1001E800002B00D098470E4B002B00D098470020DA
:1001F800002104000D000D48002802D00C480EF024
:1002080045FB0EF057FA200029000EF01FFA0EF0F9
:1002180041FA00BF000008000000000000000000D4
:100228000000000044040020100A002095E800089F
:10023800A1E8000860EA000800000020440400204B
:1002480044040020100A002013B5234B0024009416
:100258005A6C42F480425A645A6C02F4804200920A
:10026800009A01941A6C42F080521A641B6C03F0D5
:10027800805301930520019B0BF0B2FF22462146D3
:100288006FF00B000BF0BEFF224621466FF00A000C
:100298000BF0B8FF224621466FF009000BF0B2FFC1
:1002A800224621466FF004000BF0ACFF224621469F
:1002B8006FF003000BF0A6FF224621466FF0010005
:1002C8000BF0A0FF224621464FF0FF3002B0BDE8F8
:1002D80010400BF097BF00BF003802407FB51848A8
:1002E800184A40F60F63C0E90023002340F2E732C2
:1002F800C0E90232C0E904330DF0FAF918B140211F
:10030800114800F009F906A94FF4805341F8103D4F
:100318000B480CF05AFF18B146210B4800F0FCF8C6
:10032800002369460648CDE9003306F099FF18B165
:100338004D21054800F0F0F807B05DF804FB00BF58
:100348006404002000000140FCE900087FB518485B
:100358004FF0804241F26703C0E90023002341F2D5
:100368008732C0E9023203610DF0C2F918B15E218B
:10037800104800F0D1F806A94FF4805341F8103D19
:100388000B480CF022FF18B164210A4800F0C4F8A9
:10039800002369460648CDE9003306F061FF18B12D
:1003A8006B21044800F0B8F807B05DF804FB00BF03
:1003B800A0040020FCE9000807B50368154A934229
:1003C8000ED100230093144B5A6C42F001025A6478
:1003D8005B6C03F001030093009B03B05DF804FB22
:1003E800B3F1804FF9D1002203F50E330192196C55
:1003F80041F0010119641B6C03F0010301931146DC
:100408001C20019B0BF0FEFE1C2003B05DF804EBE2
:100418000BF02CBF000001400038024003680B4A73
:10042800934206D102F59C32536C23F001035364C6
:100438007047B3F1804F07D1054A136C23F00103CD
:1004480013641C200BF01EBF704700BF0000014062
:100458000038024030B599B000212D4B01911A6C3B
:1004680042F080521A641B6C03F080530193019B85
:10047800284B02911A6842F480421A601B6803F400
:1004880080430293029B01254FF480330224CDE977
:100498000C534FF48003CDE9124308214FF4A8739D
:1004A800CDE914130CA807231694179309F0EAFA58
:1004B80000B1FEE70F23CDE9073409904FF4A052AD
:1004C8004FF48053052107A8CDE90A2309F0E0FC81
:1004D80000B1FEE7C02303A8CDE90434039509F071
:1004E80011FE044600B1FEE709F06AFD4FF47A7385
:1004F800B0FBF3F00BF0E6FE04200BF0B1FF224650
:1005080021464FF0FF300BF07DFE19B030BD00BF23
:100518000038024000700040FEE700BF0F49D1F8E4
:10052800883043F47003C1F888300D4B1A680020F6
:1005380042F001021A6098601A6822F0847222F46C
:1005480080321A60074A5A601A6822F480221A60B8
:10055800D8604FF000638B60704700BF00ED00E08B
:100568000038024010300024174A1849936803F0F5
:100578000C03042B10B50DD0082B0DD0144B0B60B9
:10058800114B144A9B68C3F30313D25C0B68D34026
:100598000B6010BD104BF2E7546850685268630254
:1005A800C2F3881200F03F004CBF0B4B084BB3FB63
:1005B800F0F35343044A5268C2F301420132520035
:1005C800B3FBF2F3DBE700BF003802400400002071
:1005D8000024F400DCE9000800127A002DE9F04F4D
:1005E8008DB00024554B01941A6B554EDFF8589185
:1005F800DFF85881DFF858A142F010021A631A6B2D
:1006080002F010020192019A02941A6B42F004025D
:100618001A631A6B02F004020292029A03941A6B8C
:1006280042F080021A631A6B02F080020392039A66
:1006380004941A6B42F001021A631A6B02F0010269
:100648000492049A05941A6B42F002021A631A6B18
:1006580002F002020592059A06941A6B42F008020B
:100668001A631B6B03F008030693224630460821E1
:10067800069B0AF0A3FB0122114648460AF09EFB9E
:10068800224640464FF210010AF098FB0125082740
:1006980007A93046CDE90775CDE909440AF010FAF3
:1006A80007A948464FF0050BCDE90755CDE90944A0
:1006B8000AF006FA079707A902274846DFF8949038
:1006C8000A94CDE90874CDF82CB00AF0F9F907A915
:1006D8001C480795CDE908940AF0F2F9042307A904
:1006E8005046CDE9073409940AF0EAF94FF48063DB
:1006F80007A95046CDE90737CDE90944CDF82CB014
:100708000AF0DEF94FF2100307A94046CDE9073594
:10071800CDE909440AF0D4F9202307A94046CDE9D8
:10072800073409940AF0CCF907A93046CDE90779CE
:1007380009940AF0C5F90DB0BDE8F08F0038024001
:10074800001002400000024000080240000C024075
:1007580000040240000012101FB51448144A4FF458
:100768008033C0E9002301240023124A8360036117
:1007780083610362C3628262C360C46103634461CC
:1007880000F087FB18B14A210B48FFF7C5FE00238C
:10079800694606480293CDE9004400F04FFF18B1BE
:1007A80054210548FFF7B8FE04B010BD2405002009
:1007B800002001400100000F06EA00081FB5144898
:1007C800144A4FF48033C0E9002301240023124A5D
:1007D8008360036183610362C3628262C360C46130
:1007E8000363446100F055FB18B16D210B48FFF716
:1007F80093FE0023694606480293CDE9004400F0C1
:100808001DFF18B177210548FFF786FE04B010BD1B
:10081800DC040020002101400100000F06EA000866
:100828001FB51448144A4FF48033C0E9002301244B
:100838000023124A8360036183610362C362826298
:10084800C360C4610363446100F023FB18B19021C5
:100858000B48FFF761FE0023694606480293CDE97D
:10086800004400F0EBFE18B19A210548FFF754FE4A
:1008780004B010BD6C050020002201400100000FEB
:1008880006EA000800B503681D4A934289B017D1EB
:100898001C4B002100915A6C42F480725A645B6CC4
:1008A80003F480730093009B05910222032303A99C
:1008B8001548CDE903230AF003F909B05DF804FBF4
:1008C800124A93420CD10F4B002101915A6C42F409
:1008D80000725A645B6C03F400730193019BE3E7B5
:1008E8000B4A9342E9D1074B002102915A6C42F41A
:1008F80080625A645B6C03F480630293029BD3E7C3
:100908000020014000380240000002400021014060
:100918000022014003680F4A934209D102F58C3244
:10092800536C23F48073536402210B480AF0A8B96E
:100938000A4A934204D10A4A536C23F40073F2E73B
:10094800084A934205D102F58B32536C23F4806335
:10095800E9E7704700200140000002400021014003
:10096800003802400022014008B50C480C4A0D4BE3
:10097800C0E9002300234FF48042C0E90233C0E9F4
:100988000423C0E90633036201F026FC28B14221A2
:100998000548BDE80840FFF7BFBD08BDB405002005
:1009A80000540040A086010010EA000810B5026853
:1009B800104B9A4286B01AD14FF410721223CDE927
:1009C800012300240123CDE9033404230DEB0301A3
:1009D800094805930AF074F8084B00941A6C42F41D
:1009E80000121A641B6C03F400130093009B06B0FA
:1009F80010BD00BF0054004000040240003802400F
:100A08000268074B9A4209D1064A0748136C23F437
:100A1800001313644FF410710AF032B9704700BF25
:100A280000540040003802400004024008B50C4859
:100A38000C4B4FF40072C0E9003202610A4A0023ED
:100A4800C0E90233C0E90523C0E9073304F0BFF861
:100A580028B142210548BDE80840FFF75DBD08BD43
:100A680008060020003C0040007701001AEA000850
:100A780070B50268144B9A4286B023D1002403F55E
:100A8800FE3300941A6C114842F400421A641B6C3D
:100A980003F400430093009B02261023062501A9B6
:100AA800CDE90136CDE9034405950AF009F84FF47C
:100AB800A45301A906480595CDE90136CDE90344BB
:100AC80009F0FEFF06B070BD003C00400000024087
:100AD8000008024008B50268094B9A420FD1094A3A
:100AE8000948136C23F40043136410210AF0C8F872
:100AF8004FF4A4510548BDE808400AF0C1B808BD44
:100B0800003C00400038024000000240000802405B
:100B18000F48104A08B54FF48273C0E90023002338
:100B28004FF40072C0E90233C0E90433C0E9062378
:100B3800C0E9083383620A23C36204F082FF28B144
:100B480045210548BDE80840FFF7E6BC08BD00BFE1
:100B5800500600200030014024EA00087FB50268F2
:100B68000E4B9A4217D100230D4A0093516C0D4841
:100B780041F480515164526C02F480520092E02199
:100B8800009A0222CDE90112CDE9033301A9052318
:100B9800059309F095FF07B05DF804FB00300140AC
:100BA80000380240000002400268064B9A4208D111
:100BB800054A0648536C23F480535364E0210AF035
:100BC8005FB8704700300140003802400000024022
:100BD8000C480D4A08B54FF4E133C0E9002300235F
:100BE8000C22C0E902330361C0E90523C0E90733D9
:100BF80006F0D8FB28B143210448BDE80840FFF7B8
:100C08008BBC08BDEC060020004400402EEA00081A
:100C18000C480D4A08B54FF4E133C0E9002300231E
:100C28000C22C0E902330361C0E90523C0E9073398
:100C380006F0B8FB28B156210448BDE80840FFF784
:100C48006BBC08BDA8060020004800402EEA00083A
:100C5800F0B50368244A934289B025D1234B244830
:100C6800002401941A6C42F400321A641B6C059437
:100C780003F400330193019B0C230DEB03010227BE
:100C880003260725CDE90337CDE9066509F018FFE6
:100C9800802303A917480795CDE90337CDE9054611
:100CA80009F00EFF09B0F0BD134A9342FAD10F4B79
:100CB8001248002402941A6C42F480221A641B6CB5
:100CC800059403F480230293029B02274FF4C05338
:100CD8000326072503A9CDE90337CDE9066509F001
:100CE800EFFE4FF48073D4E7004400400038024020
:100CF80000000240000C024000480040000402408E
:100D080008B5134A036893420FD102F5FA320C2151
:100D1800136C104823F40033136409F0B1FF8021E9
:100D28000D48BDE8084009F0ABBF0C4A93420DD10D
:100D380002F5F8324FF4C051136C094823F48023AC
:100D4800136409F09DFF4FF48071E9E708BD00BF07
:100D58000044004000000240000C024000480040EF
:100D6800000402400B4808B54FF0A0430360082177
:100D78000323C0E90213022200230361C0E906230A
:100D880007F0B0F928B140210348BDE80840FFF753
:100D9800C3BB08BD300700203AEA000810B5036855
:100DA800B3F1A04F86B02DD100244FF4007301A9F0
:100DB80015480394CDE9013409F082FE4FF4E0525E
:100DC8000223CDE9012301A90A230F480593CDE9A0
:100DD800034409F075FE0D4B5A6B42F080025A63CA
:100DE80000945A6C42F480425A645B6C03F480436A
:100DF8000093432022462146009B0BF003FA432030
:100E08000BF034FA06B010BD000002400038024072
:100E180008B50368B3F1A04F0ED1084A0848536BD0
:100E280023F0800353634FF4F05109F029FF432066
:100E3800BDE808400BF026BA08BD00BF00380240E4
:100E4800000002407047FEE7FEE7FEE7FEE7704756
:100E58007047704708B50BF069FBBDE808400BF018
:100E68000CBB01480CF01EBBA00400200368B3F1C2
:100E7800804F04D14FF48051014809F0A4BF704756
:100E8800000C0240014807F0FFB900BF30070020FE
:100E9800704710B50446002800F09980036C23B908
:100EA800436480F83C30FFF7EDFC236CDB0600F16F
:100EB8008C80236C23F4885323F0020343F002034D
:100EC8002364444B5A6822F440325A605A68616875
:100ED8000A435A60236821695A6822F480725A606A
:100EE8005A6842EA01225A605A68A16822F04072A0
:100EF8005A605A680A435A609A68E16822F40062A4
:100F08009A609A680A439A603349A26A8A4250D022
:100F1800996821F07061996099680A439A609A68A3
:100F2800E16A22F040529A609A680A439A609A6885
:100F3800A16922F002029A609A6842EA41029A6024
:100F4800226A002A3DD05A68616A42F400625A60F7
:100F58005A6822F460425A605A68013942EA4132BA
:100F68005A60DA6AE16922F47002DA62DA6A0139EF
:100F780042EA0152DA629A68216B22F400729A609E
:100F88009A6842EA41229A609A68616922F480620A
:100F98009A609A68002042EA81229A606064236C11
:100FA80023F0030343F001032364002384F83C3057
:100FB80010BD9A6822F070629A609A6822F04052D6
:100FC800B4E75A6822F40062CAE70120EDE701207D
:100FD800EEE700BF002301400100000F704738B55D
:100FE8000446A0B1036C43F00203036403689A68E3
:100FF80022F001029A609D6815F0010503D1FFF700
:1010080089FC65642564002084F83C0038BD012013
:10101800FCE782B00023019390F83C30012B4ED0BE
:10102800012380F83C3003689A68D10705D59A688F
:10103800D20714D4002002B070479A68214942F0C0
:1010480001029A60204A1268B2FBF1F202EB4202F6
:101058000192019A002AEAD0019A013AF8E7026C53
:1010680022F4E06222F0010242F4807202645A68BB
:10107800510541BF026C22F4405242F4805202648E
:10108800026C12F480521CBF426C22F006024264C9
:10109800002280F83C206FF022021A600B4A526846
:1010A800D20608D1986810F04050C3D19A6842F02F
:1010B80080429A60BFE7064A9342BBD1F2E702201A
:1010C800B9E700BF40420F000400002000230140A0
:1010D8000020014090F83C30012B17D0012380F804
:1010E8003C3003689A6822F001029A609B68DB072B
:1010F80007D4036C23F4885323F0010343F001035E
:101108000364002380F83C3018467047022070477B
:1011180003689A6870B5560504460D460BD59B685A
:10112800D80508D5236C43F020032364002384F8F2
:101138003C30012070BD0BF005FA064623681A689A
:1011480092070CD56FF012021A60226C42F40072FA
:1011580022649A6812F0405F13D00020EAE7691C05
:10116800EDD045B9236C43F004032364002384F8CD
:101178003C300320DEE70BF0E5F9801BA842DDD9FF
:10118800F0E7A269002AE8D1DA6A12F4700F02D0F7
:101198009B685B05E1D4236C23F480732364206C83
:1011A80010F48050D9D1236C43F001032364C1E7C4
:1011B800F8B504460E4615460BF0C4F907462368F1
:1011C8001A6836EA02020AD1012E226C19D142F4B9
:1011D800803222646FF001021A6000200AE06A1C63
:1011E800EED045B9236C43F004032364002384F84C
:1011F8003C300320F8BD0BF0A5F9C01BA842DED98E
:10120800F0E742F480622264626C42F00202626497
:101218006FF02002E0E782B00023019390F83C30A1
:10122800012B54D0012380F83C3003689A68D10719
:1012380005D59A68D20714D4002002B070479A687E
:10124800244942F001029A60234A1268B2FBF1F283
:1012580002EB42020192019A002AEAD0019A013A6D
:10126800F8E7026C22F4E06222F0010242F4807294
:1012780002645A68510541BF026C22F4405242F49C
:1012880080520264026C12F480521CBF426C22F03D
:1012980006024264002280F83C206FF022021A60A5
:1012A8005A6842F0806242F020025A600B4A526843
:1012B800D20608D1986810F04050BDD19A6842F023
:1012C80080429A60B9E7064A9342B5D1F2E7022014
:1012D800B3E700BF40420F00040000200023014094
:1012E8000020014090F83C30012B1DD0012380F8EC
:1012F8003C3003689A6822F001029A609A68D20723
:101308000DD45A6822F0806222F020025A60036CE1
:1013180023F4885323F0010343F0010303640023FB
:1013280080F83C30184670470220704737B513469E
:101338000022019290F83C20012A044665D00568F5
:10134800012280F83C20AA68D20705D5AA68D007F0
:1013580015D4002003B030BDAA6842F00102AA608B
:101368002B4A10682B4AB0FBF2F000EB40000190CA
:10137800019A002AEAD0019A013A0192F8E7206C12
:1013880020F4E06020F0010040F4807020646A6876
:10139800520541BF206C20F4405040F48050206436
:1013A800226CA06B12F480521CBF626C22F0060201
:1013B8006264002284F83C20174AC263174A026418
:1013C800174AC2646FF022022A606A6842F080629B
:1013D8006A60AA6842F48072AA600A4605F14C0164
:1013E8000AF080FB0F4B5B6813F01F0F236808D1CE
:1013F800986810F04050ACD19A6842F080429A60E8
:10140800A8E7094A9342A4D1F2E70220A2E700BF65
:101418000400002040420F0097140008F914000847
:101428002F160008002301400020014090F83C30AE
:10143800012B10B5044624D0012380F83C30036802
:101448009A6822F001029A609A68D20717D49A68BB
:10145800806B22F480729A600AF082FB22685368DB
:1014680023F080635360236C23F4885323F0010333
:1014780043F001032364002384F83C3010BD0020AE
:10148800F9E70220FAE70368D86C70477047836B66
:101498001A6C12F0500F10B524D11A6C42F4007275
:1014A8001A641A68916811F0405F17D19969A9B94F
:1014B800D16A11F4700F02D0916849050ED45168B1
:1014C80021F0200151601A6C22F480721A641A6C9F
:1014D800D2045EBF1A6C42F001021A641846FFF784
:1014E800D5FF10BD9B6BBDE81040DB6C18477047FB
:1014F80008B5806BFFF7FBFF08BD7047704738B52C
:10150800036819685A688D0704462BD5900629D5B3
:10151800226CD1065EBF226C42F4007222649A6883
:1015280012F0405F17D1A269AAB9DA6A12F4700FF3
:1015380002D09A6852050ED45A6822F020025A60E6
:10154800236C23F480732364236CDB045EBF236C59
:1015580043F0010323642046FFF798FF23686FF0E8
:1015680012021A60236819685A684D0732D51006A6
:1015780030D5226CD1065EBF226C42F40052226440
:101588009A6812F4401F1ED19A6B12F4401F02D0C1
:101598009A68520517D45A68550514D49A6812F0F7
:1015A800405F10D1A26972B95A6822F080025A606D
:1015B800236C23F480532364236CD8055EBF236C0B
:1015C80043F001032364204600F05CFB23686FF0BE
:1015D8000C021A60236819685A68C9070FD555069E
:1015E8000DD51B68D8070AD5236C43F480332364D0
:1015F8002046FFF782FF23686FF001021A60236814
:1016080019685A6889060DD552010BD5626C6FF0BE
:10161800200542F00202626420461D60FFF76EFF5B
:1016280023681D6038BD806B08B540230364436C94
:1016380043F004034364FFF761FF08BDF7B50023D7
:10164800019390F83C30012B7ED00D688E68012301
:10165800092D80F83C30ACB2036829D904EB440268
:10166800DF681E3A4FF0070C0CFA02FC27EA0C0759
:10167800DF60DF6806FA02F23A43DA604968062951
:1016880001EB810224D8596B053A1F26964021EABE
:1016980006015963596B04FA02F20A435A632B4A4A
:1016A800934231D0002380F83C30184603B0F0BD97
:1016B8001F6905EB45024FF0070C0CFA02FC27EAFC
:1016C8000C071F611F6906FA02F23A431A61D5E74F
:1016D8000C294FF01F010BD81E6B233A914026EAC4
:1016E80001011963196B04FA02F20A431A63D6E777
:1016F800DE6A413A914026EA0101D962D96A04FAC0
:1017080002F20A43DA62CAE7122D04D1104A53687A
:1017180043F480035360A5F11003012BC2D80C4A8F
:101728005368102D43F400035360BBD1094B0A4A98
:101738001B68B3FBF2F20A2353430193019B002B6E
:10174800B0D0019B013BF8E70220AFE70020014041
:10175800002301400400002040420F0090F83C3074
:10176800012B10B527D0012380F83C300A690368A3
:10177800012A5A680CBF42F0400222F040025A6027
:101788005A680C6822F4400222F400725A605A68BF
:1017980022435A604A685A628A689A625A6822F0F2
:1017A8001F025A605C688A8922435A60002380F8C5
:1017B8003C30184610BD0220FCE7006C7047406CB6
:1017C800704700BF806B40230364436C43F00403FD
:1017D8004364FFF793BE806BFFF789BE836B1A6C77
:1017E80012F0500F23D11A6C42F400721A641A686E
:1017F800916811F0405F17D19969A9B9D16A11F4BC
:10180800700F02D0916849050ED4516821F020016B
:1018180051601A6C22F480721A641A6CD2045EBF8A
:101828001A6C42F001021A641846FFF72FBE9B6B30
:10183800DB6C184782B00023019390F83C30012BF1
:1018480047D0012380F83C3003689A68D10705D552
:101858009A68D20714D4002002B070479A681E49CB
:1018680042F001029A601D4A1268B2FBF1F202EBE3
:1018780042020192019A002AEAD0019A013AF8E755
:10188800026C22F4405222F0010242F480520264B7
:10189800026C12F4807208BF4264002280F83C2077
:1018A8006FF004021A600E4A526812F01F0F9A680D
:1018B80058680AD112F4401FCDD110F48060CAD103
:1018C8009A6842F480029A60C6E706498B42C2D100
:1018D800F0E70220C0E700BF40420F0004000020EC
:1018E800002301400020014082B00023019390F8BA
:1018F8003C30012B4BD0012380F83C3003689A68B8
:10190800D10705D59A68D20714D4002002B07047D1
:101918009A68204942F001029A601F4A1268B2FB95
:10192800F1F202EB42020192019A002AEAD0019AEE
:10193800013AF8E7026C22F4405222F0010242F424
:1019480080520264026C12F4807208BF4264002262
:1019580080F83C206FF004021A605A6842F0800256
:101968005A600E4A526812F01F0F9A6858680AD1D6
:1019780012F4401FC9D110F48060C6D19A6842F4AD
:1019880080029A60C2E706498B42BED1F0E7022086
:10199800BCE700BF40420F000400002000230140C4
:1019A8000020014090F83C30012B024626D001234C
:1019B80080F83C30036CDB0518D401684B6813F4DD
:1019C800806313D1886820F001008860886810F06F
:1019D800010011D1136C23F4885323F0010343F061
:1019E80001031364002382F83C307047136C43F002
:1019F800200313640120F5E71846F3E70220704737
:101A080070B504460D460AF09DFD064623681A681F
:101A180050070CD56FF00C021A60226C42F4005289
:101A280022649A6812F4401F11D0002008E06A1C52
:101A3800EDD035B904232364002384F83C30032017
:101A480070BD0AF07FFD801BA842DFD9F2E79A6BD0
:101A580012F4401F02D09A685105E6D45A6852051C
:101A6800E3D49B6813F0405FDFD1A369002BDCD17E
:101A7800236C23F480532364206C10F48070D4D139
:101A8800236C43F001032364DAE790F83C30012B20
:101A980002462AD0012380F83C30036CDB051CD4B5
:101AA80001684B6813F4806317D1886820F001003F
:101AB8008860886810F0010015D14B6823F0800316
:101AC8004B60136C23F4885323F0010343F00103A4
:101AD8001364002382F83C307047136C43F02003F2
:101AE80013640120F5E71846F3E70220704782B037
:101AF8000023019303686FF0040201391A60032977
:101B080005D8DFE801F00B0907029B6C01930198E7
:101B180002B070475B6CF9E71B6CF7E7DB6BF5E726
:101B280037B513460022019290F83C20012A04465A
:101B380062D00568012280F83C20AA68D20705D542
:101B4800AA68D00715D4002003B030BDAA6842F0B7
:101B58000102AA60294A1068294AB0FBF2F000EB9A
:101B680040000190019A002AEAD0019A013A0192B4
:101B7800F8E7206C20F4E06020F0010040F4807069
:101B880020646A68520541BF206C20F4405040F43C
:101B980080502064226CA06B12F480521CBF626CCF
:101BA80022F006026264002284F83C20154AC263CF
:101BB800154A0264154AC2646FF002022A606A6814
:101BC80042F080626A60256B114A8DB1556845F410
:101BD800005555600A460F4909F084FF2368986844
:101BE80010F04050AFD19A6842F080429A60ABE75B
:101BF800556825F40055ECE70220A5E7040000200D
:101C080040420F00E5170008DF170008CD1700084D
:101C1800002301400823014090F83C30012B10B507
:101C2800044625D0012380F83C3003689A6822F0E6
:101C380001029A609B68DB0718D40E4A806B5368D0
:101C480023F40053536009F08BFF2268536823F094
:101C580080635360236C23F4885323F0010343F01B
:101C680001032364002384F83C3010BD0020F9E709
:101C78000220FAE700230140014B9868704700BF33
:101C880000230140704790F83C30012BF0B500F07C
:101C9800B5800C688A680123092C80F83C30A6B20C
:101CA800036876D906EB4605DF681E3D4FF0070C42
:101CB8000CFA05FC27EA0C07DF60DF6802FA05F575
:101CC8003D43DD609A6BD1F810C022F440129A634C
:101CD8009D6B0CF1FF3245EA02559D634D689F6B81
:101CE800EA1CA2EB0C02D2B202EB82024FF01F0CEC
:101CF8000CFA02FC27EA0C079F639F6B06FA02F2B4
:101D08003A439A633E4ECA69B24252D09E6826F45C
:101D180070269E609E6832439A609A680E6A22F422
:101D280040129A609A6832439A608A69002A48D0B9
:101D38005A6842F480625A604A69002A45D05A6853
:101D480042F480525A60022DCA682E4941D0032DB0
:101D580046D0012D4BD15D692940596159690A4323
:101D68005A61294A93420FD1122C05D1D2F8043373
:101D780043F48003C2F80433103C012C04D8234AEE
:101D8800536843F400035360002380F83C3018463E
:101D9800F0BD1F6904EB44054FF0070C0CFA05FC75
:101DA80027EA0C071F611F6902FA05F53D431D610B
:101DB80088E79A6822F470229A609A6822F440129E
:101DC800B2E75A6822F48062B5E75A6822F4805272
:101DD800B8E79D692940996199690A439A61C0E702
:101DE800DD692940D961D9690A43DA61B9E71D6A11
:101DF80029401962196A0A431A62B2E70220C7E742
:101E080001000F0000F0FFFF002001400023014007
:101E180090F83C30012B10B51DD0104B5A6822F0B9
:101E28001F025A605A680C6822435A605A6822F4A2
:101E380040425A605A684C6822435A605A6822F4F1
:101E480070625A605A6889680A435A60002380F8A9
:101E58003C30184610BD0220FCE700BF00230140BB
:101E68000268536913F480630DD06FF48063536183
:101E78000423036420220023036380F83C3080F8A5
:101E88003D2001207047184670472DE9F04104466F
:101E9800164698468FB22568686937EA000013D05D
:101EA8006B695A0512D52B6843F400732B606FF4E5
:101EB80080636B610423236420220023236384F856
:101EC8003C3084F83D200120BDE8F081731CE3D04C
:101ED80046B900232022236384F83C3084F83D204F
:101EE8000320F1E70AF02EFBA0EB0800B042D2D99C
:101EF800EFE72DE9F843089E054690461F464FEA4E
:101F080011498CB22968B9F1010F0CBF4B698B6973
:101F180034EA03030CBF01230023984501D00020B5
:101F28000CE07B1CEFD05FB9002320222B6385F8DF
:101F38003C3085F83D20032085F83E30BDE8F88325
:101F48000AF000FB801BB842DCD9EDE770B5044607
:101F58000D46164623685B691B0601D5002012E072
:101F68002046FFF77DFFA8B96A1CF3D065B9236C3A
:101F780043F02003236420220023236384F83C30A9
:101F880084F83D20032070BD0AF0DCFA801BA842CB
:101F9800E0D9ECE70120F6E72DE9FF411546026894
:101FA8000B9E9846136843F4807313600F4600969F
:101FB8000A9B00224FF001110446FFF79AFF68B907
:101FC80023680A9A1C4907F0FE071F61204633461A
:101FD800FFF75BFF30B1236C042B18D0032004B04B
:101FE800BDE8F081236803905A6903929B690393C3
:101FF80032460A99039B2046FFF7A8FF48B1236C95
:10200800042BEBD12268136843F40073136001209A
:10201800E5E7B8F1010F236802D1EDB21D61DEE7F3
:102028002A0A1A610A9932462046FFF78FFF0028CC
:10203800E5D12368F1E700BF020001002DE9FF4167
:10204800984603680B9D16461A6842F480621A6027
:102058001A6842F480721A600F4600950A9B0022A3
:102068004FF001110446FFF744FF80B923682F4958
:10207800FFB207F0FE021A6120462B460A9AFFF7C4
:1020880004FF40B1236C042B01D1012000E00320A0
:1020980004B0BDE8F081236803905A6903929B69F4
:1020A80003932A460A99039B2046FFF74FFF40B146
:1020B800236C042BEBD12268136843F4007313607C
:1020C800E3E7B8F1010F236824D1F6B21E612A466E
:1020D8000A992046FFF73AFF02460028E8D121680E
:1020E8000B6843F480730B60204600950A9B4FF001
:1020F8000111FFF7FEFE0028C9D123680A9A0B498F
:1021080047F001071F6120462B46FFF7BEFE002857
:10211800B8D1BDE7320A1A610A992A462046FFF764
:1021280015FF0028C4D12368CFE700BF02000100D3
:1021380070B504460D4616462068436913F04003FF
:1021480001D000200DE04269D2060BD56FF01002D5
:1021580042612022236484F83C302363012084F800
:102168003D2070BD5DB9236C43F020032364202318
:1021780084F83D30002384F83C300320F1E70AF06E
:10218800E1F9801BA842D7D9EDE770B504460D46A2
:10219800164623685B695B0701D5002012E02046DC
:1021A800FFF75EFEA8B96A1CF3D065B9236C43F04B
:1021B8002003236420220023236384F83C3084F81E
:1021C8003D20032070BD0AF0BDF9801BA842E0D96C
:1021D800ECE70120F6E7704770B50446002862D0A6
:1021E80090F83D3003F0FF021BB980F83C20FEF761
:1021F800DDFB22682D4E2E4D242384F83D301368D4
:1022080023F00103136007F0E1FE63682268B0FB66
:10221800F5F5B34284BF4FF496716943556091BF99
:10222800691C4FF47A75B1FBF5F10131B3421162C3
:1022380021D85B00B0FBF3F0C0F30B03032B98BF6E
:102248000420D4E907310B43D0611360D4E90313A8
:102258000B439360D4E905310B43D360136843F013
:102268000103136000202023206484F83D3020639C
:1022780084F83E0070BDA16849B903EB4303B0FB85
:10228800F3F0C0F30B0363B140F40040D9E7192120
:102298004B43B0FBF3F0C0F30B0313B140F44040E1
:1022A800CFE70120CDE70120E4E700BFA0860100C9
:1022B80040420F00704710B5044698B102682423C5
:1022C80080F83D30136823F001031360FEF798FB94
:1022D8000020206484F83C0084F83D00206384F8E2
:1022E8003E0010BD0120FCE72DE9FF4104461F46D2
:1022F8000D4690460AF026F994F83D30202B064604
:1023080004D00225284604B0BDE8F08100901923C6
:1023180001225C492046FFF7ECFD0028F1D194F832
:102328003C30012BEDD0012384F83C3023681A6837
:10233800D2075EBF1A6842F001021A601A6822F4D6
:1023480000621A60212284F83D20102284F83E2081
:1023580000222264A2F580326785E262628D2285BE
:10236800E26AC4F82480042A04D0012A02D012F5B3
:10237800803F04D11A6842F480721A6002E0226B2E
:10238800122AF7D000960A9B00224FF0011120462E
:10239800FFF7AFFD002833D123692268B3F5804FDA
:1023A80020D105F0FE05156133460A9A36492046C4
:1023B800FFF76BFD054610BB236803905A6903922B
:1023C8009B690393039B238D3BBB21680A6842F4F6
:1023D80000720A60202284F83D2084F83C3084F89A
:1023E8003E308FE7EB1103F0060343F0F00313616F
:1023F80026490A9A33462046FFF747FD48B1236C21
:10240800236C042B4FF0000384F83C300ED10125D7
:1024180078E72368EDB21D61C6E732460A9920467F
:10242800FFF794FD20B1236C042B25D0032569E721
:10243800616A2068228D4B1C63620B780361638D8F
:10244800013B9BB263854769531E9BB27F07238577
:102458000AD54BB18B1C63624B780361638D013BDA
:102468009BB2023A6385228532460A992046FFF7D5
:102478008CFE0028A7D0D6E72268136843F40073BF
:102488001360C4E702001000020001000800010008
:102498002DE9F043044689B098460D469146109FB1
:1024A8000AF050F894F83D30202B064604D0022557
:1024B800284609B0BDE8F0830090192301229B4902
:1024C8002046FFF716FD0028F1D194F83C30012B87
:1024D800EDD0012384F83C3023681A68D1075EBF29
:1024E8001A6842F001021A601A6822F400621A603F
:1024F800222284F83D20102284F83E200022226403
:10250800A2F58032A4F82A80E262628D2285E26A0E
:102518001968C4F8249041F48061042A196004D031
:10252800012A02D012F5803F04D11A6842F4807261
:102538001A6002E0226B112AF7D000963B4600226F
:102548004FF001112046FFF7D4FC00284BD1226937
:102558002368B2F5804F37D145F00105EDB21D6112
:1025680033463A4672492046FFF78FFC0546002855
:1025780038D1228D2368002A63D0012A74D11A68C1
:1025880022F480621A6004905A6904929A6904924B
:10259800049A1A6842F400721A60DFF89C81238D4D
:1025A800002B58D0032B00F2C980012B77D132467B
:1025B80039462046FFF7BCFD002800F08D80236CCB
:1025C800202B17D1032573E74FEAE51808F0060812
:1025D80048F0F0021A61574933463A462046FFF759
:1025E80054FC48B1236C236C042B4FF0000384F88F
:1025F8003C30E7D101255BE723684D49EDB21D6109
:102608003A4633462046FFF740FC02460028E9D107
:10261800236807905969079199690791079919687B
:1026280041F480711960204600963B464FF0011135
:10263800FFF75FFC0028D6D1226848F0F103136148
:102648008EE703905A6903929A690392039A1A686B
:1026580042F400721A60202384F83D30002384F885
:102668003E3084F83C3023E7022A1A680DD122F460
:1026780080621A601A6842F400621A6005905A690A
:1026880005929B690593059B87E742F480621A606F
:1026980006905A6906929B690693069B7DE7022B72
:1026A80000963B464FF000024146204622D1FFF7F4
:1026B80020FC002886D123681A6842F400721A6048
:1026C8001A69636A591C61621A70238D013B23855C
:1026D800638D013B9BB2638523681A69636A591C41
:1026E80061621A70238D013B2385638D013B9BB288
:1026F800638554E7FFF7FDFB024600287FF462AFCD
:102708002368196821F4806119601969636A581C83
:1027180060621970238D0096013B2385638D013B10
:102728009BB2638541463B462046C0E70200100045
:102738000200010008000100040001003246394689
:102748002046FFF7F5FC00287FF439AF23681A69A3
:10275800636A591C61621A70238D013B2385638D5E
:10276800013B9BB2638523685A6952077FF517AF0F
:10277800B3E72DE9FF4104461D460F46904609F090
:10278800E1FE94F83D30202B064640F099801FB9B1
:10279800012004B0BDE8F081B8F1000FF8D094F83A
:1027A8003C30012B00F08C80012384F83C302368F6
:1027B80044491A68D2075EBF186840F001001860E3
:1027C8001868212220F40060186084F83D20202237
:1027D80084F83E2000222264A4F82A80E162618DF8
:1027E80021851968676241F4806119602046009666
:1027F8002B463549FFF77DFB0246002841D1236867
:102808000290596902919B690293029B2369B3F56F
:10281800404F0ED100962B462B492046FFF769FB07
:1028280000282ED1236803905A6903929B69039369
:10283800039B228DBAB900962B464FF4823120466D
:10284800FFF757FBE8B923686FF480625A611A688A
:1028580022F480621A60202384F83D3084F83C001A
:1028680084F83E0095E7324629462046FFF76EFB7E
:10287800236840B11A6822F480621A60236C042B22
:1028880086D0032085E7616A4A1C62620A781A6169
:10289800628D013A92B26285228D5F69501E80B2C4
:1028A8007F072085C5D50028C3D0881C6062497879
:1028B8001961638D013B9BB2023A63852285B8E7B3
:1028C800022066E70000FFFF020001002DE9FF413A
:1028D80004461E460D46904609F034FE94F83D30F5
:1028E800202B074640F0A680002D62D0B8F1000FDB
:1028F8005FD094F83C30012B00F09C80012384F8D1
:102908003C3023684C491A68D0075EBF186840F00D
:10291800010018601868222220F40060186084F80A
:102928003D20202284F83E2000222264A4F82A8038
:10293800E162618D21851968656241F480611960E1
:102948002046009733463D49FFF7D3FA054600284D
:102958006ED1236802905A6902929B690293029B86
:10296800238DC3B923685A69D20644D5002203923D
:1029780059690391196841F00101196003991968AF
:1029880021F480611960202384F83D3084F83C20CC
:1029980084F83E200EE03A4631462046FFF7C8FB51
:1029A800236858B11A6822F480621A60236C202BBD
:1029B8003ED00125284604B0BDE8F0811A69636A53
:1029C800591C61621A70238D013B2385638D013B7D
:1029D8009BB2638523685A695107C1D51A69636A2E
:1029E800591C61621A70238D013B2385638D013B5D
:1029F8009BB26385B4E72046FFF732FA80B926B167
:102A080009F0A0FDC01B8642ACD2236C43F0200322
:102A1800236420220023236384F83C3084F83D207B
:102A28002268136823F480631360236C042BC0D0DE
:102A38000325BFE70225BDE70000FFFF02000100F4
:102A480037B50024019490F83D40202C02D0022094
:102A580003B030BD224C46F2A8152468B4FBF5F546
:102A680019246C430194019C651E01953CB92023EF
:102A7800046380F83C4080F83D300320E8E70468B0
:102A8800A569AD07EFD490F83C50012DDFD00125A2
:102A980080F83C502568ED075EBF256845F00105C4
:102AA8002560256825F400652560212580F83D50BE
:102AB800102580F83E50002505644385094BC36204
:102AC800438D416403852368426243F48073236025
:102AD800636880F83C5043F4E06363602846B7E7D6
:102AE800040000200000FFFF37B50024019490F88F
:102AF8003D40202C02D0022003B030BD244C46F2C9
:102B0800A8152468B4FBF5F519246C430194019CBD
:102B1800651E01953CB92023046380F83C4080F889
:102B28003D300320E8E70468A569AD07EFD490F8C5
:102B38003C50012DDFD0012580F83C502568ED0779
:102B48005EBF256845F001052560256825F4006508
:102B58002560222580F83D50102580F83E5000253C
:102B6800056443850B4BC362438D41640385236829
:102B7800426243F480632360236843F480732360D4
:102B8800636880F83C5043F4E06363602846B3E729
:102B9800040000200000FFFF73B500240094019496
:102BA80090F83D40069D202C02D0022002B070BD56
:102BB800042D01D0012D18D1264C46F2A816246800
:102BC800B4FBF6F6192474430194019C661E019621
:102BD8003CB92023046380F83C4080F83D30032052
:102BE800E4E70468A469A407EFD490F83C40012CFA
:102BF800DBD0012480F83C4004682668F6075EBFF5
:102C0800266846F001062660266826F400662660D7
:102C1800212680F83D60102680F83E600026066474
:102C28004385C562438D41640385036B0093009B14
:102C38004262122B01D0009B1BB9236843F48073B6
:102C480023606268002342F4E06280F83C306260EE
:102C58001846ABE70400002073B50024019490F8EF
:102C68003D40069D202C02D0022002B070BD042DEC
:102C780001D0012D18D12D4C46F2A8162468B4FBBA
:102C8800F6F6192474430194019C661E01963CB91A
:102C98002023046380F83C4080F83D300320E4E7BB
:102CA8000468A469A407EFD490F83C40012CDBD059
:102CB800012480F83C4004682668F6075EBF266851
:102CC80046F001062660266826F40066266022265D
:102CD80080F83D60102680F83E6000260664438533
:102CE800C562438D41640385036B4262112B01D099
:102CF800036B93B9042D04D0012D02D015F5803F44
:102D080008D1236843F480632360236843F4807305
:102D1800236002E0036B112BF3D06268002342F4B6
:102D2800E06280F83C30626018469EE704000020AC
:102D380013B50023019390F83D30202B02D00220D8
:102D480002B010BD002946D0002A44D0234B46F2D9
:102D5800A8141B68B3FBF4F4192363430193019B84
:102D68005C1E01943BB92022036380F83C3080F854
:102D78003D200320E4E703689C69A407EFD490F89A
:102D88003C40012CDBD0012480F83C401C68E4075F
:102D98005EBF1C6844F001041C601C6824F40064D5
:102DA8001C60212480F83D40202480F83E40002407
:102DB800046442850A4AC262428D02851A684162E9
:102DC80042F480621A605A6880F83C4042F4E0623B
:102DD8005A602046B4E70120B2E700BF0400002093
:102DE8000000FFFF13B50023019390F83D30202B1E
:102DF80002D0022002B010BD002945D0002A43D0DD
:102E0800224B46F2A8141B68B3FBF4F4192363435E
:102E18000193019B5C1E01943BB92022036380F857
:102E28003C3080F83D200320E4E703689C69A40750
:102E3800EFD490F83C40012CDBD0012480F83C40D2
:102E48001C68E4075EBF1C6844F001041C601C6831
:102E580024F400641C60222480F83D40202480F87B
:102E68003E400024046402854285094AC2621A6809
:102E7800416242F480621A605A6880F83C4042F429
:102E8800E0625A602046B5E70120B3E7040000205D
:102E98000000FFFF37B590F83D40282C34D10029B9
:102EA80030D0002A2ED090F83C40012C2CD0056858
:102EB800012480F83C402C68E4075EBF2C6844F08D
:102EC80001042C602C6824F400642C60292480F808
:102ED8003D40202480F83E40002404644285C362BB
:102EE800438D019403856B690193AB690193019B41
:102EF8006B68416243F4E06380F83C406B602046B5
:102F080003B030BD0120FBE70220F9E737B590F8A0
:102F18003D40282C34D1002930D0002A2ED090F8FA
:102F28003C40012C2CD00568012480F83C402C68DA
:102F3800E4075EBF2C6844F001042C602C6824F47C
:102F480000642C602A2480F83D40202480F83E400C
:102F5800002404644285C362438D019403856B6930
:102F68000193AB690193019B6B68416243F4E06391
:102F780080F83C406B60204603B030BD0120FBE781
:102F88000220F9E790F83D30202B14D1282380F84F
:102F98003D3003681A68D2075EBF1A6842F0010222
:102FA8001A601A6842F480621A605A6842F44072E1
:102FB8005A60002070470220704790F83D30282B57
:102FC80018D190F83D2090F83E3002F003021343E8
:102FD8000363202380F83D300268002380F83E30E8
:102FE800116821F480611160516821F440715160C9
:102FF800184670470220704773B50E4611460022E6
:10300800019290F83D20202A044602D0022002B006
:1030180070BD364A46F2A8101268B2FBF0F01922C9
:1030280042430192019A501E01903AB9202322632B
:1030380084F83C2084F83D300320E8E72268906952
:103048008507EFD494F83C000128DFD0012084F8EC
:103058003C001068C0075EBF106840F001001060B7
:10306800106820F400601060212084F83D000025DD
:10307800102084F83E00256463851D4BE362638D50
:1030880061629BB22385666403B3606B194EC663A5
:10309800194EC6641032C0E910558564056508F0FC
:1030A80021FD23681A6842F480621A601A6842F4A3
:1030B80080721A605A6884F83C5042F440725A6030
:1030C8005A6842F400625A602846A0E7116841F441
:1030D80080611160116841F480711160516884F851
:1030E8003C3041F4E0615160184690E7040000204C
:1030F8000000FFFFCF3C00089B3C000873B5044666
:103108000020019094F83D00202802D0022002B04F
:1031180070BD374846F2A8150068B0FBF5F51920D0
:10312800684301900198451E019538B92023206312
:1031380084F83C0084F83D300320E8E72568A86956
:103148008607EFD494F83C000128DFD0012084F8EA
:103158003C002868C0075EBF286840F0010028606E
:10316800286820F400602860222084F83D000026AA
:10317800102084F83E00266463851E4BE362638D4D
:1031880062629BB2238561640BB3A06B1A49C16369
:103198001A49C164C0E910668664066505F1100124
:1031A80008F0A0FC23681A6842F480621A601A6862
:1031B80042F480721A605A6884F83C6042F44072A3
:1031C8005A605A6842F400625A6030469FE72A689B
:1031D80042F480622A602A6842F480722A606A682F
:1031E80084F83C3042F4E0626A6018468FE700BF1A
:1031F800040000200000FFFFCF3C00089B3C0008B3
:1032080073B50023019390F83D30202B04461646F1
:1032180002D0022002B070BD002959D0002A57D030
:103228002C4B46F2A8101B68B3FBF0F0192343435C
:103238000193019B5A1E01923BB92022236384F813
:103248003C3084F83D200320E4E723689A6990071E
:10325800EFD494F83C20012ADBD0012284F83C20EA
:103268001A68D2075EBF186840F001001860186835
:103278001A4620F40060212342F8100B84F83D30F0
:10328800202384F83E300025134B25646685E362CD
:10329800638D606B114E61629BB22385C663104ECD
:1032A800C664C0E910558564056508F01BFC2368F1
:1032B8001A6842F480621A605A6884F83C5042F4F2
:1032C80040725A605A6842F400625A602846A1E780
:1032D80001209FE7040000200000FFFFCF3C00080A
:1032E8009B3C000873B50023019390F83D30202BD8
:1032F80004460E4602D0022002B070BD00295AD002
:10330800002A58D02D4B46F2A8111B68B3FBF1F1E7
:1033180019234B430193019B591E01913BB920226C
:10332800236384F83C3084F83D200320E4E72368D5
:1033380099698807EFD494F83C100129DBD0012162
:1033480084F83C101968C9075EBF196841F001018B
:1033580019601868194620F40060222341F8100B00
:1033680084F83D30202384F83E300025144B256432
:103378006285E362638DA06B124A66629BB2238505
:10338800C263114AC264C0E91055324685640565B6
:1033980008F0A8FB23681A6842F480621A605A6829
:1033A80084F83C5042F440725A605A6842F4006211
:1033B8005A602846A0E701209EE700BF04000020CD
:1033C8000000FFFFCF3C00089B3C00082DE9F347B5
:1033D80004469A46884691460C9E09F0B3F894F83C
:1033E8003D30202B054603D0022002B0BDE8F0870F
:1033F8000090192301223E492046FEF77AFD002855
:10340800F2D194F83C30012BEED0012384F83C3003
:1034180023681A68D2075EBF1A6842F001021A6070
:103428001A6822F400621A60212384F83D30402390
:1034380084F83E300A9B63620027BDF82C3027646D
:1034480063852C4BE362638D2385CDE90065534684
:103458004A4641462046FEF79FFD00282AD0236CA5
:1034680084F83C70042B07D10120BEE7FEF76EFDFF
:1034780020B1236C042B34D00320B6E7616A276897
:10348800228D4B1C63620B783B61638D013B9BB2C1
:1034980063857B69501E80B25B0720850AD548B1D9
:1034A8008B1C63624B783B61638D013B023A9BB294
:1034B80022856385238D2A4631462046002BD5D1A7
:1034C800FEF763FE0028D4D12268136843F4007322
:1034D8001360202384F83D3084F83C0084F83E00D3
:1034E80083E72268136843F400731360BCE700BFE6
:1034F800020010000000FFFF2DE9F047044686B0E7
:103508009A460D469146109F09F01CF894F83D30F4
:10351800202B064604D00225284606B0BDE8F087D1
:1035280000901923012278492046FEF7E2FC002882
:10353800F1D194F83C30012BEDD0012384F83C30D4
:1035480023681A68D1075EBF1A6842F001021A6040
:103558001A6822F400621A60222384F83D3040235E
:1035680084F83E300E9B63624FF00008BDF83C3093
:10357800C4F840806385654BE362638D23852946E3
:10358800CDE9007653464A462046FEF757FD0546E4
:1035980030B1236C84F83C80042B3AD10125BBE779
:1035A800228D236892B902905A6902929A6902920E
:1035B800029A1A6842F400721A60202384F83D3097
:1035C800002384F83E3084F83C30A5E7012A22D154
:1035D8001A6822F480621A6003905A6903929A6901
:1035E8000392039A1A6842F400721A60DFF8208185
:1035F800238D002BE1D0032B6BD8012B23D132462E
:1036080039462046FEF794FD002839D0236C202B3C
:10361800C4D1032580E7022A0ED11A6822F48062F9
:103628001A601A6842F400621A6004905A69049297
:103638009B690493049BD9E705905A6905929B6995
:103648000593059BD2E7022B00963B464FF00002FC
:103658004146204622D1FEF74CFC0028D9D12368E8
:103668001A6842F400721A601A69636A591C616226
:103678001A70238D013B2385638D013B9BB26385C3
:1036880023681A69636A591C61621A70238D013BA9
:103698002385638D013B9BB26385A9E7FEF729FC6F
:1036A80002460028B5D12368196821F480611960A1
:1036B8001969636A581C60621970238D0096013B72
:1036C8002385638D013B9BB2638541463B4620467B
:1036D800C1E7324639462046FEF72AFD002895D133
:1036E80023681A69636A591C61621A70238D013B49
:1036F8002385638D013B9BB2638523685A69520712
:103708007FF576AFBDE700BF020010000000FFFFA5
:1037180004000100F7B50024019490F83D40BDF87D
:103728002460202C02D0022003B0F0BD244C46F2C5
:10373800A8152468B4FBF5F519246C430194019C81
:10374800651E01953CB92023046380F83C4080F84D
:103758003D300320E8E70468A569AF07EFD490F887
:103768003C50012DDFD0012580F83C502568089F8A
:10377800ED075EBF256845F001052560256825F43D
:1037880000652560212580F83D50402580F83E5091
:1037980000250564068546850A4EC6624164826432
:1037A800C36405652368476243F4807323606368D4
:1037B80080F83C5043F4E06363602846B4E700BFF8
:1037C800040000200000FFFFF7B50024019490F8E2
:1037D8003D40BDF82450202C02D0022003B0F0BD9B
:1037E800274C46F2A8162468B4FBF6F6192474434D
:1037F8000194019C661E01963CB92023046380F85D
:103808003C4080F83D300320E8E70468A669B70724
:10381800EFD490F83C60012EDFD0012680F83C60A0
:103828002668089FF6075EBF266846F001062660F0
:10383800266826F400662660222680F83D60402629
:1038480080F83E60476200260E4F06644585C762D1
:1038580041648264C36406652368058543F4806314
:103868002360236843F48073236080F83C602DB1A3
:10387800636843F4E06363603046AFE72846ADE72A
:10388800040000200000FFFF2DE9F04F044685B03A
:103898009A4600230293884691460E9FBDF83C50F5
:1038A80008F050FE94F83D30202B834603D00220C8
:1038B80005B0BDE8F08F374B46F2A8121B68B3FB82
:1038C800F2F2192353430293029B5A1E02923BB908
:1038D8002022236384F83C3084F83D200320E7E766
:1038E800226893699907EFD494F83C30012BDED015
:1038F800012384F83C301368DB075EBF136843F08C
:1039080001031360136823F400631360212384F810
:103918003D30402384F83E3000261F4B2664676202
:1039280065852585E362002D31D0606B1B4BC36331
:103938001B4BC36410322B463946C0E910668664B7
:10394800066508F0CFF823230093CDF804B053465A
:103958004A4641462046FEF71FFB30B1236C84F8E7
:103968003C60042BBAD10120A2E7236803905A696E
:1039780003929A690392039A5A6884F83C0042F4C5
:1039880080725A605A6842F400625A6090E728468A
:103998008EE700BF040000200000FFFFCF3C0008B6
:1039A8009B3C00082DE9F047044686B01F460023DB
:1039B80003930D461646DDF838A0BDF83C8008F0A4
:1039C800C1FD94F83D30202B814603D0022006B07B
:1039D800BDE8F0874F4B46F2A8121B68B3FBF2F222
:1039E800192353430393039B5A1E03923BB9202286
:1039F800236384F83D2084F83C300320E7E72168FE
:103A08008B699A07EFD494F83C30012BDED0012360
:103A180084F83C300B68DB075EBF0B6843F001039A
:103A28000B600B6823F400630B60222384F83D309D
:103A3800402384F83E300022374B2264A4F82A80C1
:103A4800E362638DC4F824A09BB22385002B43D086
:103A5800A06BDFF8C8C0C0F83CC0DFF8C4C08264FF
:103A6800C0E91022026510315246C0F84CC008F077
:103A780039F823230093CDF804903B463246294673
:103A88002046FEF7DBFA40B1236C042B4FF000030D
:103A9800B1D184F83C30012099E72368B8F1010FCF
:103AA8000BBF1A685A6822F4806242F480520CBF35
:103AB8001A605A6000220492596904919969049124
:103AC800049984F83C205A6842F480725A605A6813
:103AD80042F400625A607AE723230093CDF80490F9
:103AE8003B46324629462046FEF7A8FA0028CBD1A5
:103AF800236805905A6905929A690592059A1A6889
:103B080042F400721A60202384F83D3084F83C00A7
:103B18005DE700BF040000200000FFFFCF3C000865
:103B28009B3C00082DE9F04F044685B0984689462D
:103B3800924608F007FD94F83D30202B064603D046
:103B4800022005B0BDE8F08F0090192301224A49F0
:103B58002046FEF7CEF90028F2D194F83C30012B2C
:103B6800EED0012384F83C302368DFF80CB11A68E2
:103B7800D2075EBF1A6842F001021A601A6822F47E
:103B880000621A60242384F83D3000253B4B2564ED
:103B980009F0FE09E3622268136843F48073136036
:103BA8004FF001110096434600222046FEF7A1F986
:103BB80008B10320C5E72368C3F8109008F0C2FCD9
:103BC800236859695A6994F83D300646C1F34001A3
:103BD800C2F38022DBB2A02711B90AB9A02B20D1E9
:103BE8002368202784F83D705A6912F0020F1A687A
:103BF80042F400721A602AD0002203925A69039292
:103C08009B690393039B0096192301221A492046B6
:103C1800FEF76FF90028CCD184F83D7084F83C0099
:103C28008FE7B8F1000F0CD184F83D70236859690B
:103C38005A6994F83D30C1F34001C2F38022DBB2E7
:103C4800CAE708F07FFC801B4045EDD8EEE76FF42B
:103C580080625A6159460096192301222046FEF7D0
:103C680048F90028A5D10135AA4594D884F83C0024
:103C780084F83D70012064E7020010000000FFFF97
:103C88007047704770477047704770477047704774
:103C9800704710B5846B08F054F9022812D02268D6
:103CA800136823F48063136000232022638584F85B
:103CB8003D2084F83E30236C43F0100323642046F3
:103CC800FFF7E6FF10BD806B90F83D2090F83E109E
:103CD800D2B2212A08B5C9B2036803D0222A0CD16E
:103CE80020290AD15A6822F400625A6000224285CB
:103CF8005A6842F440725A6008BD1A6822F4806219
:103D08001A601A6842F400721A605A6822F48052E3
:103D18005A605A6822F400625A6000234385036C93
:103D280013B1FFF7B5FFE7E7202280F83D2090F8B0
:103D38003E2080F83E30402A02D1FFF7A8FFDBE79B
:103D4800FFF79FFFD8E7704790F83D200368293AAE
:103D5800012A10B5044639D800220263282280F8C7
:103D68003D201A6822F400621A605A6812F4006250
:103D780054D05A68606B22F400625A6090F835306B
:103D8800012B394B31D0036507F02DFF50B1226864
:103D9800606B136823F001031360202384F83D301F
:103DA800036D984794F83D30282B0ED1236C5B07A0
:103DB8000BD52E4BE362202200232363204684F890
:103DC8003D2084F83E30FFF760FF10BD90F83D209D
:103DD800602A05D05A6812055CBF202280F83D2071
:103DE8000022226384F83E20BBE7A06B036507F03E
:103DF800FAFE0028D6D023685A69500604D51A69F5
:103E0800636A591C61621A702268A06B136823F0F8
:103E180001031360202384F83D30C1E794F83D1076
:103E2800602914D1202184F83D1022645A69510672
:103E380004D51A69636A591C61621A70226813688A
:103E480023F0010313602046FFF77DFFAAE75A69B4
:103E5800520604D51A69636A591C61621A702046B1
:103E6800FFF716FF9EE700BFD54600080000FFFFDA
:103E780090F83E20102A10B51CD190F83C20012A59
:103E88001AD000246022046380F83D20026811687B
:103E980021F480611160116841F40071116044855A
:103EA800516821F4E061516080F83C40FFF74CFF15
:103EB800204610BD0120FCE70220FAE70368F0B5B0
:103EC8009D6959695A6890F83E40E4B2102C8DB04B
:103ED80002D0402C40F0548211F0011F66D09705A3
:103EE80064D590F83E40402C43D1046D002C3BD162
:103EF800446C04F0FE041C61984E994C2E400C4012
:103F0800002E00F09B81974D0D40002D00F062813E
:103F1800550540F15F81002C40F05E8190F83D200E
:103F2800058D90F83E10C46AD2B2C9B2002D40F097
:103F38000581212A40F00481042C00F06881082CB6
:103F480000F0658114F5803F00F061815A6822F421
:103F5800E0625A601123036380F83E50202380F802
:103F68003D30FFF78DFEF6E0446C44F00104E4B206
:103F7800C1E70469B4F5804F05D190F83D40212C84
:103F8800446CF2D1B5E7046D34B9446CE41104F023
:103F9800060444F0F004AEE7046D012CACD1446C87
:103FA800E41104F0060444F0F104A4E76E4C0C405C
:103FB8001CB1960501D5446CD9E76C4C0C40002C1B
:103FC8009AD0940598D590F83E40C66AD0F830C08B
:103FD80090F83D70222FE4B240F0A880076D47B9F1
:103FE800402C06D101975C6901949C690194019C5D
:103FF80082E7046D8CB90769B7F5404F0DD102947B
:104008005C6902949C690294029C1C6844F4807464
:104018001C60046D013404656EE7448DA4B254B984
:1040280003945C6903949C690394039C1C6844F49E
:1040380000741C6019E0448DA4B2012C42D116F51D
:10404800803F1BD11C6824F480641C605C6814F4F5
:1040580000640CD01C6824F480641C600024049460
:104068005C6904949C690494049C0024D3E7059437
:104078005C6905949C690594059CD7E7042E15D0C6
:10408800082E13D0BCF1120F10D0C46A022C1C6881
:1040980014BF24F4806444F480641C6000240694F3
:1040A8005C6906949C690694069CDEE71C6824F407
:1040B80080641C60002407945C6907949C690794D9
:1040C800079CB3E7448DA4B2022C1CD1C46A022C0D
:1040D8001C681DBF24F480641C601C6844F4806460
:1040E80018BF44F400641C605C68270542BF5C6824
:1040F80044F480545C60002408945C6908949C69CA
:104108000894089CB1E71C6844F480641C605C68EF
:10411800260542BF5C6844F480545C60002409941E
:104128005C6909949C690994099C9EE700240A9497
:104138005C690A949C690A940A9CDDE6212A03D0EA
:10414800402908D1222A06D1428D92B282B95A68F2
:1041580022F480625A600DB0F0BD00BF0400100068
:1041680004000100800001000800010002000100B5
:1041780090F83E20402A27D1026D7AB9C26C012AF4
:10418800826C05D1D2B21A61036D02330365E2E78E
:10419800C2F307221A61036D0133F7E7026D012AA2
:1041A80002D1826CD2B2F5E7026D022AD3D190F81F
:1041B8003D20222A04D11A6842F480721A60CAE7A4
:1041C80090F83D20212AC6D1426A511C41621278DA
:1041D8001A618DE0002CBED09405BCD5C16A90F858
:1041E8003D20212AB7D1428D92B2002AECD1042970
:1041F8000DD008290BD011F5803F08D0596821F45B
:10420800E06159601123036380F83E20A6E65A68EE
:1042180022F4E0625A601A6842F400721A600023BD
:104228002022036380F83D2090F83E2080F83E303D
:10423800402A7FF496AEFFF729FD8CE7924D0D409A
:10424800002D40D051053ED5002C3FD190F83D209F
:10425800222A80D1428D92B2032A13D91A69436A5D
:10426800591C41621A70438D013B9BB24385438DB3
:104278009BB2032B7FF46FAF0268536823F480630B
:10428800536068E7012A3FF666AF1A6822F4806235
:104298001A605A6822F4E0625A601A69436A591C23
:1042A80041621A70438D013B9BB24385202380F8FD
:1042B8003D30046390F83E3080F83E40402B5CD19E
:1042C800FFF7E5FC47E7002C3FF445AF97057FF57E
:1042D80042AFC46A458D426AADB2042D02F10101B4
:1042E8000BD15C6824F480645C601B6941621370C4
:1042F800438D013B9BB243852DE7458DADB2032D20
:1043080008D15C6824F480645C601C6824F48064D0
:104318001C60EAE7458DADB2022DE6D1013C012CC7
:104328001C689DBF24F480641C601C6844F40074FD
:1043380098BF44F480741C601B6941621370438DFC
:10434800013B9BB2438503681A69436A591C416261
:104358001A70438D0268013B9BB24385536823F46E
:1043680040735360202380F83D300023036390F8A6
:104378003E2080F83E30402AA1E7FFF782FCEAE6BB
:10438800424C0C4074B196050CD599699B6981F033
:1043980004011D06C1F3800154BF8289028BFFF717
:1043A80073FCD8E63A4C0C40002C75D0940573D5B4
:1043B80090F83D20596821F4E061596000210B9183
:1043C80059690B91196841F0010119600B99196835
:1043D80021F48061196059680905D2B20CD590F8AA
:1043E8003D10222903D090F83D102A292AD1816B4B
:1043F8000968496889B24185418D89B2E1B1596935
:104408004F0708D51969436A5C1C44621970438DCB
:10441800013B9BB24385036859694E0608D5196963
:10442800436A5C1C44621970438D013B9BB243850F
:10443800036C43F004030364036C2BB10DB0BDE8B7
:10444800F04081E4416BD3E7A2F1280102290AD8A0
:10445800104AC2622022036380F83D2080F83E3073
:10446800FFF713FC77E6036B222B02D0222A7FF496
:1044780072AE00232022036380F83D2080F83E308E
:10448800FFF701FC67E600BF4000010002000100E1
:10449800100001000000FFFF3B4E3C4C2E400C403A
:1044A800002E36D03A4D0D403DB3550525D53CBBC1
:1044B80090F83D10428D92B2C9B2002A3FF44BAE3B
:1044C800426A541C446212781A61428D013A92B2CF
:1044D8004285428D92B2002A7FF43DAE29297FF4AD
:1044E8003AAE5A6822F480625A6021230363282373
:1044F80080F83D30FFF7C6FB2DE6002C3FF42BAECD
:1045080094057FF528AE428D92B2002A7FF45CAE06
:1045180021E6204D0D4035B3510524D534BB90F824
:104528003D20418D89B2D2B200293FF414AE1969F9
:10453800436A5C1C44621970438D013B9BB24385FE
:10454800438D9BB2002B7FF406AE2A2A7FF403AE7C
:104558000268536823F4806353602223036328238B
:1045680080F83D308CE7002C3FF4F5AD92057FF5DF
:10457800F2AD428D92B2002A3FF4EDAD1A69436A5A
:10458800591C41621A70B3E60400100004000100CF
:104598008000010040000100F8B50368494A5E69DF
:1045A8005D681642044608D0E80506D5226C42F03C
:1045B800010222646FF480725A6116F4813F08D0B8
:1045C800E90506D5226C42F0020222646FF40072FB
:1045D8005A6116F4823F36D0EA0534D594F83E7015
:1045E800618D94F83D20206B202F89B2D2B258D12A
:1045F800002956D102F0F701212903D0282A50D1E9
:1046080021284ED194F83D20E16A0429D2B201D084
:1046180008292CD1282A2AD12B4AE2625A6822F486
:10462800E0625A606FF480625A611A6822F480620C
:104638001A60002320222363204684F83D2084F852
:104648003E30FFF722FB16F4843F09D0EB0507D56F
:10465800236C43F00803236423686FF400625A61F3
:10466800236C73B32046BDE8F840FFF76DBB212AE1
:1046780023D11549E1622263202284F83D200022DB
:1046880084F83E205A6822F4E0625A606FF480622F
:104698005A611A6822F480621A602046FFF7F2FA1B
:1046A800D1E7226C42F00402226494F83E20102ADA
:1046B80002BF1A6842F400721A606FF480625A618D
:1046C800C1E7F8BD000101000000FFFF806B08B5DD
:1046D8000368416B1A6822F480621A6000224285DE
:1046E8000A65816B0A6590F83D1060294FF020013A
:1046F80080F83D1080F83E2007D102641A6822F045
:1047080001021A60FFF71FFB08BD1A6822F00102B8
:104718001A60FFF7BDFAF7E790F83D00704790F888
:104728003E007047006C7047F8B504460F461546C2
:1047380007F008FF064623689A6837EA020210D095
:104748006A1CF9D03DB9012384F84130002384F86C
:1047580040300320F8BD07F0F5FE801B8542EAD201
:10476800F1E70020F6E77047704710B5044658B1E6
:10477800022380F84130FCF7ADF90020606484F82A
:10478800410084F8400010BD0120FCE790F841305A
:10479800DBB2012B01D00220704741B33AB3036862
:1047A8004162D96901F00701032901D0052901D126
:1047B800520092B20285428590F84020012AEAD040
:1047C800012280F84020032280F841200022426420
:1047D800596841F0A0015960D96949055EBFD96996
:1047E80041F48061D96180F8402000207047184664
:1047F800704790F84130DBB2012B01D0022070479E
:1048080041B33AB30368C162D96901F007010329CA
:1048180001D0052901D1520092B20286428690F851
:104828004020012AEAD0012280F84020042280F8A2
:10483800412000224264596841F060015960D969F9
:1048480049055EBFD96941F48061D96180F840208B
:10485800002070471846704738B50446002944D0F0
:10486800002A42D090F84130012B01D0022038BDF7
:1048780005684162EB6903F00703032B01D0052BA0
:1048880030D153009BB22385638594F84030012BC7
:10489800ECD0012384F8403000236364A06B032329
:1048A80084F84130124B0364124BC363124BC36448
:1048B80005F10C02238D07F015F92368DA69510513
:1048C8005EBFDA6942F48062DA615A68920758BFBB
:1048D8005A684FF000005CBF42F002025A6084F848
:1048E8004000C4E702854285CFE70120BFE700BF4B
:1048F8006B4B0008774B0008AF4F000837B51346DD
:1049080004460A4600294ED0002B4CD090F841109E
:10491800012902D0022003B030BD0568C262E869EF
:1049280000F00700032801D0052801D15B009BB2E5
:104938002386638694F84030012BEBD0012384F85A
:104948004030E06B042384F841300021174B616448
:104958000364174BC363174BC364EB6903F44073D9
:10496800B3F5407F05D10191EB680193AB680193E2
:10497800019B238E05F10C0107F0B4F82368DA696E
:1049880051055EBFDA6942F48062DA615A68D2077B
:1049980058BF5A684FF000005CBF42F001025A60ED
:1049A80084F84000B7E70120B5E700BFA14B000835
:1049B800AD4B0008AF4F000890F84030012B2DD0C8
:1049C800012380F8403090F84130032B09D1026868
:1049D800536823F002035360002380F840301846E0
:1049E800704790F84130042B04D10268536823F0D3
:1049F8000103F0E790F84130052BEDD10268084932
:104A0800536823F003035360064B8A4218BF4FF0E4
:104A180040235A6822F003025A60DDE702207047FB
:104A2800003800400034004090F84030012B39D065
:104A3800012380F8403090F841200368032A0FD101
:104A48005A6842F002025A60DA6952055EBFDA69B2
:104A580042F48062DA61002380F8403018467047DB
:104A680090F84120042A03D15A6842F00102EAE78B
:104A780090F84120052AE7D15A680B4942F0030211
:104A88005A600A4A8B4218BF4FF04022516841F0E1
:104A980003015160D16949055EBFD16941F4806164
:104AA800D161D1E70220704700380040003400404F
:104AB80090F84030012B70B5044649D0012380F8A6
:104AC800403090F841200368032A14D15A68806B5B
:104AD80022F002025A6007F043F82268D36923F4EF
:104AE80080631B041B0CD3610020012384F8413030
:104AF80084F8400070BD90F84120042A05D15A6816
:104B0800C06B22F001025A60E5E790F84120052ABF
:104B1800E3D15A680F4E104D806B22F003025A60A1
:104B2800B3420CBF2B464FF040235A6822F00302D1
:104B38005A6007F015F8E06B07F012F82368B342E3
:104B480018BF4FF04025EB6923F48063EB61C4E79D
:104B58000220CFE70038004000340040436B18477C
:104B6800704708B5806BFFF7FBFF08BD7047026808
:104B7800126812F4807208B5836B08D1186841680E
:104B880021F0020141605A85012283F8412018462C
:104B9800FFF7ECFF08BD704708B5806BFFF7FBFF18
:104BA80008BD70470268126812F4807208B5836BFA
:104BB80008D11868416821F0010141605A86012234
:104BC80083F841201846FFF7ECFF08BD704770B521
:104BD800044600283FD00225404B80F841504363EB
:104BE800FBF746FF2268D36923F47B6323F00F03A6
:104BF800D36163691562022BD56935D0E368002B50
:104C0800A3680CBF102620260120202B98BF760011
:104C180005F028FB23696169B3F5007F1FD1E368BC
:104C28000A22D3B1B300B0FBF3F353430A22B3FB18
:104C3800F1F30533B3FBF2F303F001021202C3F3FD
:104C48004F03991EFD2911D9636C43F01003636467
:104C58002046FFF7BBFF01203FE0F300E3E70A230C
:104C6800B0FBF6F04343E1E70022EAE71343226989
:104C7800206813430362D4E90163E2681343A2691D
:104C880013439BB246F400611943226A89B20D436B
:104C9800012AC5611CD1124A62631249124A88422C
:104CA80018BF4FF0402236F40070D16921F47B61BF
:104CB80021F00F01D1614FF002011162D16914BFD7
:104CC80000204FF4807043F4006303430B43D36127
:104CD80000200123606484F8413070BDF54C000861
:104CE800D5560008003800400034004030B503684D
:104CF80085B09A68019290F84120042A04463AD176
:104D0800019AD20719D55A68550616D5C26AD968C4
:104D1800951CC5621180428E013A92B24286428E3B
:104D280092B252B95A6822F060021204120C5A6008
:104D3800012380F84130FFF734FF019B59061AD54B
:104D480023685A68920616D55A6822F0600212043F
:104D5800120C5A6000220292DA6802929B6802934F
:104D6800029B012384F84130636C43F002036364BF
:104D78002046FFF72BFF94F84130032B3AD1019BD3
:104D88009D071BD522685368180617D5636A991CB6
:104D98001B886162D360638D013B9BB26385638D21
:104DA8009BB25BB9536823F0A0031B041B0C536030
:104DB800012384F841302046FFF7D8FE019B1907EC
:104DC80018D523685A68920614D55A6822F0A002AA
:104DD8001204120C5A60002203929B680393039BEF
:104DE800012384F84130636C43F004036364204674
:104DF800FFF7ECFE05B030BD73B504461E460D4600
:104E080000295BD0002A59D090F84130012B02D0FC
:104E1800022002B070BD0368D96901F007010329B7
:104E280001D0052901D1520092B22285628594F8F9
:104E38004020012AECD0012284F84020002262643C
:104E4800032284F84120DA69510503D4DA6942F46F
:104E58008062DA61608D80B228B9012384F841301C
:104E680084F84000D5E7236835F8022BDA60628DB4
:104E7800013A92B26285022132462046FFF754FC7D
:104E880040B1636C43F0010320466364FFF79EFE64
:104E98000320BEE723689A681207DBD501909B6858
:104EA80001930125019B84F8415084F84000636C0C
:104EB80043F0040363642046FFF788FE0120A8E757
:104EC80073B504461E460D46002962D0002A60D0FC
:104ED80090F84130012B02D0022002B070BD016869
:104EE800CB6903F00703032B01D0052B01D1520036
:104EF80092B22286628694F84030012BECD00123CE
:104F080084F8403000236364042384F84130CB697B
:104F180058055EBFCB6943F48063CB61CB6903F46A
:104F28004073B3F5407F06D100230093CB6800930C
:104F38008B680093009B608E80B228B9012384F8A7
:104F4800413084F84000C8E7324601212046FFF787
:104F5800EBFB40B1636C43F0010320466364FFF749
:104F680035FE0320B9E723689A68520613D50190E5
:104F7800DA6801929B6801930125019B84F84150EE
:104F880084F84000636C43F0020363642046FFF733
:104F98001DFE0120A1E7DB6825F8023B638E013B7B
:104FA8009BB26386C7E7806B026808B5536823F035
:104FB80003035360002343854386012380F841306F
:104FC800436C43F008034364FFF700FE08BD90F804
:104FD80041007047406C7047806B0D490268536808
:104FE80023F0030353600B4B8A4218BF4FF0402352
:104FF8005A6822F003025A6000234385438601233E
:1050080080F84130436C43F008034364FFF7DEBD8A
:1050180000380040003400402DE9F84304460F46AC
:105028001546984607F08EFA0646B8F1000F1BD0D1
:10503800DFF85C80DFF85C90236843450CBF4B4683
:105048004FF040239A6837EA02021FD06A1CF9D051
:105058009DB107F077FA801B8542EDD20DE007F08D
:1050680071FA801B854208D323689A6837EA0202DE
:105078000CD0691CF9D0002DF1D1012384F84130FE
:10508800002384F840300320BDE8F8830020FBE7C4
:1050980000380040003400402DE9F047044686B04F
:1050A8001646002900F03D81002A00F03A81002BC5
:1050B80000F0378190F84120012A04D002252846C3
:1050C80006B0BDE8F0870268D06900F00700032841
:1050D80001D0052801D15B009BB223856385238617
:1050E800638694F84030012BE8D0012384F84030DF
:1050F80000200523606484F84130D369DFF82CE28E
:105108000D4613F4807103F4407735F802CB40F074
:105118009080C2F80CC0608D834B0138724518BF6F
:105128004FF0402380B26085D86940F48060D86130
:10513800D06940F48060D061D26902F44072B2F55F
:10514800007F05D10091DA6800929B680093009B6C
:10515800DFF8D891DFF8D0A1638E9BB253B9638D85
:105168009BB23BB90020012384F84130054684F8FE
:105178004000A4E7638D9BB26BB300230E9A022113
:105188002046FFF749FF40B1636C43F001036364B5
:105198002046FFF71BFD032591E722682B88D36083
:1051A800638D013B9BB2638593681B0705F1020879
:1051B80012D58FB90197936801930125019B84F853
:1051C800415084F84070636C43F0040363642046E4
:1051D800FFF7FCFC73E7A846638E9BB23BB3012341
:1051E8000E9A19462046FFF717FF0028CCD12268EF
:1051F8004A450CBF51464FF04021B51CCB6833805F
:10520800638E013B9BB263868B685E060ED5029067
:10521800D368029393680293029B012584F8415056
:1052280084F84000636C43F00203CFE72E464546FE
:1052380092E73D4B724518BF4FF04023C3F80CC0AE
:10524800618D013989B26185D96941F48061D9617B
:10525800D36943F48063D361D36903F44073B3F52E
:10526800407F05D10390D368039393680393039B0E
:10527800DFF8B890DFF8B0A0638E9BB223B9638DD6
:105288009BB2002B3FF46EAF638D9BB233B3012307
:105298000E9A02212046FFF7BFFE00287FF474AF64
:1052A80022682B884A450CBF51464FF0402105F132
:1052B8000208CB60638D013B9BB263858B6819073D
:1052C8000DD5B7F5807F0AD1049093680493012522
:1052D800049B84F8415084F8400074E7A846638E24
:1052E8009BB2E3B100230E9A01212046FFF794FEFA
:1052F80000287FF449AF2268D3683380638E013B6E
:105308009BB2638693685B0606F1020106D5059099
:10531800D368059393680593059B7EE70E4645463B
:10532800AAE70125CBE600BF003400400038004062
:105338002DE9F341044615460E46002900F0AA80DF
:10534800002A00F0A780002B00F0A48090F84120EC
:10535800012A03D0022002B0BDE8F0816162016831
:10536800C562CA6902F00702032A01D0052A01D1E1
:105378005B009BB2238563852386638694F840305F
:10538800012BE7D0012384F84030D4F83CC0A06B4F
:10539800DFF814E1404FDFF80C8105230022626436
:1053A80084F841303D4BCCF84C30CCF840E0CCF898
:1053B8003C70C364CB6913F4807FC0E90F7E33D19E
:1053C800374F238E41450CBF39464FF040212A46BE
:1053D8000C31604606F086FB2268A06B42450CBF84
:1053E80039464FF040210C324B6843F001034B60C3
:1053F800238D314606F076FB23685A6842F0020294
:105408005A60DA6951050BD4434518BF4FF040275D
:10541800FA6942F48062FA61DA6942F48062DA6118
:10542800002084F8400096E7CB6903F44073B3F595
:10543800407F05D10192CB6801938B680193019B52
:10544800174F238D41450CBF39464FF0402101F1DC
:105458000C02314606F046FB124E2168E06BB14261
:105468000CBF3A464FF040220C31536843F0020318
:105478005360238E2A4606F035FB23685A6842F0AB
:1054880001025A60DA695205CAD4B34218BF4FF014
:105498004027BDE701205EE729560008E14F0008D4
:1054A8000034004000380040B7540008704708B581
:1054B800806BFFF7FBFF08BD704738B5044690F8CE
:1054C8004100C0B2012801D0022038BD0029FCD01B
:1054D800002AFAD0002BF8D0E26222686162D16912
:1054E80001F00701032901D0052901D15B009BB216
:1054F800238563852386638694F84030012BE3D0A7
:105508000023012084F840006364052384F84130B7
:10551800D369414913F4807F404B47D19A420CBF6D
:105528000B464FF04023596841F0600159605168BB
:1055380041F0A0015160D1694D0533D4D16911F40E
:10554800407F20D1618D89B2E9B1616A8D1C0988DB
:105558006562D160618D013989B26185618D89B2D9
:1055680089B9516821F0A0010904090C5160628EC3
:1055780092B242B95A6822F060025A6084F8410037
:105588002046FFF799FF22682449234B8A4218BF17
:105598004FF04023D96941F48061D961D36943F45C
:1055A8008063D361002084F840008EE79A420CBFE4
:1055B8000B464FF04023596841F0A00159605168EB
:1055C80041F060015160D1694905EBD4D16901F41A
:1055D8004071B1F5407FD6D1618D89B20029D2D012
:1055E800616A8D1C09886562D960618D013989B24B
:1055F8006185618D89B20029C5D1596821F0A00162
:105608005960638E9BB2002BBDD1536823F06003B1
:105618001B041B0C5360B1E7003400400038004005
:1056280038B503681B68DB05054641D4846BE36B1A
:10563800834220D12368DA6902F44072B2F5007F10
:1056480003D0DA6912F4407F06D11E491E4A8B4204
:105658000CBF13464FF040235A6822F001025A60EB
:1056680000236386638D9BB22BB9012384F84130F4
:105678002046FFF721FFA36BAB4219D12368DA69F3
:1056880002F44072B2F5007F03D0DA6912F4407F69
:105698000FD15A6822F002025A6000236385638E94
:1056A8009BB22BB9012384F841302046FFF704FF51
:1056B80038BD0449044A8B420CBF13464FF04023BF
:1056C800E7E700BF00380040003400401FB503681A
:1056D80095499A680092954A8B4218BF4FF040222C
:1056E800044691680191D96901F44071B1F5007FD0
:1056F80004D0D96911F4407F40F09A80009A92074B
:105708001DD55A6810061AD5626A911C1288616202
:10571800DA60628D013A92B26285628D92B272B994
:105728005A6822F0A0021204120C5A60638E9BB2CF
:105738002BB9012384F841302046FFF7BDFE019BB9
:10574800D90722D5784A2168784B914218BF4FF083
:1057580040235A68520618D5E26AD968901CE0625C
:105768001180628E013A92B26286628E92B262B9FA
:105778005A6822F060025A60638D9BB22BB90123EC
:1057880084F841302046FFF797FE019B580624D540
:1057980065492368654A8B4218BF4FF0402251681B
:1057A80089061AD5516821F0600151605A6822F0C3
:1057B800A0021204120C5A6000220292DA680292C5
:1057C8009B680293029B012384F84130636C43F089
:1057D800020363642046FFF7F9F9009B1B0740F1B9
:1057E800A08023685A68900640F19B805A684E4909
:1057F80022F0A0021204120C5A604C4A8B4218BFC5
:105808004FF04022516821F060015160002203925C
:105818009B680393039B012384F84130636C204603
:1058280043F00403636404B0BDE81040FFF7CEB949
:10583800019B99071AD553681B0617D5436A991C0B
:105848001B884162D360438D013B9BB24385438DE6
:105858009BB25BB9536823F0A0035360438E9BB29D
:1058680023B9012380F84130FFF726FE009BD807B3
:105878001ED52268536859061AD5E36AD168981C60
:10588800E0621980638E013B9BB26386638E9BB294
:1058980073B9536823F060031B041B0C5360638DBA
:1058A8009BB22BB9012384F841302046FFF704FE50
:1058B800009B5A061DD5226853689B0619D5536864
:1058C800194923F060031B041B0C5360174B8A42D1
:1058D80018BF4FF0402320465A6822F0A0025A60B1
:1058E800012384F84130636C43F002036364FFF7DB
:1058F8006DF9019B180714D50B4922680B4B8A4296
:1059080018BF4FF04023596889060AD5596821F015
:10591800A0015960536823F060031B041B0C5360FB
:1059280079E704B010BD00BF0038004000340040E3
:1059380082B000230093114B45F6C0521B68B3FB9D
:10594800F2F26423534301930368019A511E0191B3
:1059580082B9426D42F0200242651A6822F0400284
:105968001A605A6822F0E0025A60DB680093009BD4
:1059780002B070479A689207E7D5EEE70400002066
:1059880003685A6822F0E0025A601A6822F040025E
:105998001A6070472DE9F041069E0446884617466E
:1059A8001D462268936838EA03030CBF01230023CD
:1059B8009F4201D100202BE06B1CF3D055BB23681C
:1059C8005A6822F0E0025A606268B2F5827F0AD112
:1059D800A268B2F5004F02D0B2F5806F03D11A6801
:1059E80022F040021A60A26AB2F5005F09D11A6873
:1059F80022F400521204120C1A601A6842F400527F
:105A08001A60012384F85130002384F850300320B1
:105A1800BDE8F08106F096FD801BA842C1D3CEE711
:105A280013B50B460092802100220446FFF7B2FF0F
:105A380020B1636D43F020036365032002B010BDFD
:105A4800704710B50446002836D00023836290F8CA
:105A5800513003F0FF021BB980F85020FBF77EF8A5
:105A68002168A269022384F851300B6823F04003AF
:105A78000B60D4E901300343E06803432069034322
:105A880060690343E0690343206A0343A06A034350
:105A980002F4007003430B60120C636A02F0040204
:105AA8001A434A60CB6923F40063CB6100200123C9
:105AB800606584F8513010BD0120FCE7704710B5CF
:105AC800044680B10268022380F85130136823F03D
